:03000000020018E3
:10000B000200BA120011758AF7758CFF2275A800D1
:10001B00C28CC28D75890112001175B80075A8824A
:10002B009030007530FF780079007A007BFF7CFF01
:10003B007DFF7EFF7FFFD28C80FE12018B120011A1
:0F004B00BF0004B53004320200557F00B4FF033C
:10005A000200A075B0FFBBFF04FBF53032BCFF0401
:10006A00FCF53032BDFF04FDF53032FE32740093E8
:10007A008B30B530217401938C30B53019740293EA
:10008A008D30B530117403938E30B5300902009A61
:10009A0075B0FE0200A675B0FD0200A678007900D0
:1000AA007A007BFF7CFF7DFF7EFF7FFF120011320B
:1000BA00780079FF7AFF7590FE1201605005790089
:1000CA000201287590FD120160500579010201288C
:1000DA007590FB120160500579020201287590F7AC
:0E00EA001201605005790302012874FF7FFFA8
:0E00F800BBFF0412001132BCFF0412001132D3
:0E010600BDFF0412001132BEFF0412001132C0
:0E011400BCFF0412001132020077D0E07FFF22
:1001220012001102005D7590EF12016050057A0411
:100132000200457590DF12016050057A0502004504
:100142007590BF12016050057A0602004575907FD6
:0E01520012016050057A0702004512001132BA
:1001600020900108209101082092010820930108A5
:100170002094010820950108209601082097010885
:0E018000B80204D3780022C3780022B900121E
:0F018E00BA0403740122BA0503740222BA0636BA
:0F019D00740322B90112BA0403740422BA0503D1
:0F01AC00740522BA0621740622B90212BA04039E
:0F01BB00740722BA0503740822BA060C740922CD
:0C01CA00B90306BA050374002274FF227A
:0430000002010007C2
:00000001FF
