:06000000120011020018BD
:10000B0012001102003F758AFD758CFF2275A80046
:10001B00C28CC28D75890112001175B80075A8824A
:10002B00120032D28C80FE75300075310075A0C085
:10003B0075B0C0220530E530B40A14020049053111
:0F004B00753000E531B40A070200561200323258
:10005A00C0D0C0E012006FF888B0120076F989A00B
:0E006A00D0E0D0D032E53012007D9322E53197
:0E00780012007D9322903000B40002E422A317
:06008600D5E0FC0200833E
:0A300000C0F9A4B0999282F8809004
:00000001FF
