:03000000020018E3
:10000B00120011020032758AF2758CFF2275A8005E
:10001B00C28CC28D75890112001175B80075A8824A
:10002B00D28C12004A80FEA89058B4FF0132E590A2
:0F003B00C0D0C0E012004EF888B0D0E0D0D03274
:0F004A0075B0C022E5901200559322F49030005B
:0F005900B40002E4227D19A31DBD000302005C68
:06006800D5E0F502005C8A
:10300000C0F9A4B0999282F880908883A7C6A1865F
:0A3010008EC28B89C7A38CE3C1BFF9
:00000001FF
